{
  "_format": "hh3-artifact-1",
  "contractName": "PredictionMarket",
  "sourceName": "contracts/PredictionMarket.sol",
  "abi": [
    {
      "inputs": [],
      "stateMutability": "nonpayable",
      "type": "constructor"
    },
    {
      "anonymous": false,
      "inputs": [
        {
          "indexed": true,
          "internalType": "uint256",
          "name": "predictionId",
          "type": "uint256"
        },
        {
          "indexed": true,
          "internalType": "address",
          "name": "bettor",
          "type": "address"
        },
        {
          "indexed": false,
          "internalType": "bool",
          "name": "choice",
          "type": "bool"
        },
        {
          "indexed": false,
          "internalType": "uint256",
          "name": "amount",
          "type": "uint256"
        }
      ],
      "name": "BetPlaced",
      "type": "event"
    },
    {
      "anonymous": false,
      "inputs": [
        {
          "indexed": true,
          "internalType": "uint256",
          "name": "predictionId",
          "type": "uint256"
        }
      ],
      "name": "BettingClosed",
      "type": "event"
    },
    {
      "anonymous": false,
      "inputs": [
        {
          "indexed": true,
          "internalType": "uint256",
          "name": "predictionId",
          "type": "uint256"
        }
      ],
      "name": "BettingReopened",
      "type": "event"
    },
    {
      "anonymous": false,
      "inputs": [
        {
          "indexed": true,
          "internalType": "uint256",
          "name": "predictionId",
          "type": "uint256"
        },
        {
          "indexed": false,
          "internalType": "string",
          "name": "shortName",
          "type": "string"
        },
        {
          "indexed": false,
          "internalType": "string",
          "name": "description",
          "type": "string"
        },
        {
          "indexed": false,
          "internalType": "uint256",
          "name": "settlementDate",
          "type": "uint256"
        },
        {
          "indexed": false,
          "internalType": "uint256",
          "name": "betAmount",
          "type": "uint256"
        }
      ],
      "name": "PredictionCreated",
      "type": "event"
    },
    {
      "anonymous": false,
      "inputs": [
        {
          "indexed": true,
          "internalType": "uint256",
          "name": "predictionId",
          "type": "uint256"
        },
        {
          "indexed": false,
          "internalType": "string",
          "name": "shortName",
          "type": "string"
        }
      ],
      "name": "PredictionDeleted",
      "type": "event"
    },
    {
      "anonymous": false,
      "inputs": [
        {
          "indexed": true,
          "internalType": "uint256",
          "name": "predictionId",
          "type": "uint256"
        },
        {
          "indexed": false,
          "internalType": "bool",
          "name": "outcome",
          "type": "bool"
        },
        {
          "indexed": false,
          "internalType": "uint256",
          "name": "winnersCount",
          "type": "uint256"
        },
        {
          "indexed": false,
          "internalType": "uint256",
          "name": "prizePerWinner",
          "type": "uint256"
        }
      ],
      "name": "PredictionSettled",
      "type": "event"
    },
    {
      "anonymous": false,
      "inputs": [
        {
          "indexed": true,
          "internalType": "uint256",
          "name": "predictionId",
          "type": "uint256"
        },
        {
          "indexed": true,
          "internalType": "address",
          "name": "bettor",
          "type": "address"
        },
        {
          "indexed": false,
          "internalType": "uint256",
          "name": "amount",
          "type": "uint256"
        }
      ],
      "name": "RefundIssued",
      "type": "event"
    },
    {
      "inputs": [
        {
          "internalType": "uint256",
          "name": "",
          "type": "uint256"
        }
      ],
      "name": "activePredictionIds",
      "outputs": [
        {
          "internalType": "uint256",
          "name": "",
          "type": "uint256"
        }
      ],
      "stateMutability": "view",
      "type": "function"
    },
    {
      "inputs": [
        {
          "internalType": "uint256",
          "name": "_predictionId",
          "type": "uint256"
        }
      ],
      "name": "closeBetting",
      "outputs": [],
      "stateMutability": "nonpayable",
      "type": "function"
    },
    {
      "inputs": [
        {
          "internalType": "string",
          "name": "_shortName",
          "type": "string"
        },
        {
          "internalType": "string",
          "name": "_description",
          "type": "string"
        },
        {
          "internalType": "uint256",
          "name": "_settlementDate",
          "type": "uint256"
        },
        {
          "internalType": "uint256",
          "name": "_betAmount",
          "type": "uint256"
        }
      ],
      "name": "createPrediction",
      "outputs": [
        {
          "internalType": "uint256",
          "name": "",
          "type": "uint256"
        }
      ],
      "stateMutability": "nonpayable",
      "type": "function"
    },
    {
      "inputs": [
        {
          "internalType": "uint256",
          "name": "_predictionId",
          "type": "uint256"
        }
      ],
      "name": "deletePrediction",
      "outputs": [],
      "stateMutability": "nonpayable",
      "type": "function"
    },
    {
      "inputs": [],
      "name": "getActivePredictions",
      "outputs": [
        {
          "internalType": "uint256[]",
          "name": "",
          "type": "uint256[]"
        }
      ],
      "stateMutability": "view",
      "type": "function"
    },
    {
      "inputs": [
        {
          "internalType": "uint256",
          "name": "_predictionId",
          "type": "uint256"
        }
      ],
      "name": "getBettors",
      "outputs": [
        {
          "internalType": "address[]",
          "name": "yesBettorsList",
          "type": "address[]"
        },
        {
          "internalType": "address[]",
          "name": "noBettorsList",
          "type": "address[]"
        }
      ],
      "stateMutability": "view",
      "type": "function"
    },
    {
      "inputs": [],
      "name": "getContractBalance",
      "outputs": [
        {
          "internalType": "uint256",
          "name": "",
          "type": "uint256"
        }
      ],
      "stateMutability": "view",
      "type": "function"
    },
    {
      "inputs": [
        {
          "internalType": "uint256",
          "name": "_predictionId",
          "type": "uint256"
        }
      ],
      "name": "getPrediction",
      "outputs": [
        {
          "internalType": "uint256",
          "name": "id",
          "type": "uint256"
        },
        {
          "internalType": "string",
          "name": "shortName",
          "type": "string"
        },
        {
          "internalType": "string",
          "name": "description",
          "type": "string"
        },
        {
          "internalType": "uint256",
          "name": "settlementDate",
          "type": "uint256"
        },
        {
          "internalType": "uint256",
          "name": "betAmount",
          "type": "uint256"
        },
        {
          "internalType": "bool",
          "name": "isActive",
          "type": "bool"
        },
        {
          "internalType": "bool",
          "name": "bettingOpen",
          "type": "bool"
        },
        {
          "internalType": "bool",
          "name": "isSettled",
          "type": "bool"
        }
      ],
      "stateMutability": "view",
      "type": "function"
    },
    {
      "inputs": [
        {
          "internalType": "uint256",
          "name": "_predictionId",
          "type": "uint256"
        }
      ],
      "name": "getPredictionStats",
      "outputs": [
        {
          "internalType": "bool",
          "name": "outcome",
          "type": "bool"
        },
        {
          "internalType": "uint256",
          "name": "yesCount",
          "type": "uint256"
        },
        {
          "internalType": "uint256",
          "name": "noCount",
          "type": "uint256"
        },
        {
          "internalType": "uint256",
          "name": "createdAt",
          "type": "uint256"
        }
      ],
      "stateMutability": "view",
      "type": "function"
    },
    {
      "inputs": [
        {
          "internalType": "uint256",
          "name": "_predictionId",
          "type": "uint256"
        },
        {
          "internalType": "address",
          "name": "_user",
          "type": "address"
        }
      ],
      "name": "getUserBet",
      "outputs": [
        {
          "internalType": "bool",
          "name": "hasBetPlaced",
          "type": "bool"
        },
        {
          "internalType": "bool",
          "name": "choice",
          "type": "bool"
        }
      ],
      "stateMutability": "view",
      "type": "function"
    },
    {
      "inputs": [
        {
          "internalType": "uint256",
          "name": "_predictionId",
          "type": "uint256"
        }
      ],
      "name": "getVolumes",
      "outputs": [
        {
          "internalType": "uint256",
          "name": "yesVolume",
          "type": "uint256"
        },
        {
          "internalType": "uint256",
          "name": "noVolume",
          "type": "uint256"
        }
      ],
      "stateMutability": "view",
      "type": "function"
    },
    {
      "inputs": [
        {
          "internalType": "uint256",
          "name": "",
          "type": "uint256"
        },
        {
          "internalType": "address",
          "name": "",
          "type": "address"
        }
      ],
      "name": "hasBet",
      "outputs": [
        {
          "internalType": "bool",
          "name": "",
          "type": "bool"
        }
      ],
      "stateMutability": "view",
      "type": "function"
    },
    {
      "inputs": [
        {
          "internalType": "uint256",
          "name": "",
          "type": "uint256"
        },
        {
          "internalType": "uint256",
          "name": "",
          "type": "uint256"
        }
      ],
      "name": "noBettors",
      "outputs": [
        {
          "internalType": "address",
          "name": "",
          "type": "address"
        }
      ],
      "stateMutability": "view",
      "type": "function"
    },
    {
      "inputs": [],
      "name": "owner",
      "outputs": [
        {
          "internalType": "address",
          "name": "",
          "type": "address"
        }
      ],
      "stateMutability": "view",
      "type": "function"
    },
    {
      "inputs": [
        {
          "internalType": "uint256",
          "name": "_predictionId",
          "type": "uint256"
        },
        {
          "internalType": "bool",
          "name": "_choice",
          "type": "bool"
        }
      ],
      "name": "placeBet",
      "outputs": [],
      "stateMutability": "payable",
      "type": "function"
    },
    {
      "inputs": [
        {
          "internalType": "uint256",
          "name": "",
          "type": "uint256"
        }
      ],
      "name": "predictions",
      "outputs": [
        {
          "internalType": "uint256",
          "name": "id",
          "type": "uint256"
        },
        {
          "internalType": "string",
          "name": "shortName",
          "type": "string"
        },
        {
          "internalType": "string",
          "name": "description",
          "type": "string"
        },
        {
          "internalType": "uint256",
          "name": "settlementDate",
          "type": "uint256"
        },
        {
          "internalType": "uint256",
          "name": "betAmount",
          "type": "uint256"
        },
        {
          "internalType": "bool",
          "name": "isActive",
          "type": "bool"
        },
        {
          "internalType": "bool",
          "name": "bettingOpen",
          "type": "bool"
        },
        {
          "internalType": "bool",
          "name": "isSettled",
          "type": "bool"
        },
        {
          "internalType": "bool",
          "name": "outcome",
          "type": "bool"
        },
        {
          "internalType": "uint256",
          "name": "createdAt",
          "type": "uint256"
        }
      ],
      "stateMutability": "view",
      "type": "function"
    },
    {
      "inputs": [
        {
          "internalType": "uint256",
          "name": "_predictionId",
          "type": "uint256"
        }
      ],
      "name": "reopenBetting",
      "outputs": [],
      "stateMutability": "nonpayable",
      "type": "function"
    },
    {
      "inputs": [
        {
          "internalType": "uint256",
          "name": "_predictionId",
          "type": "uint256"
        },
        {
          "internalType": "bool",
          "name": "_outcome",
          "type": "bool"
        }
      ],
      "name": "settlePrediction",
      "outputs": [],
      "stateMutability": "nonpayable",
      "type": "function"
    },
    {
      "inputs": [
        {
          "internalType": "uint256",
          "name": "",
          "type": "uint256"
        },
        {
          "internalType": "address",
          "name": "",
          "type": "address"
        }
      ],
      "name": "userBets",
      "outputs": [
        {
          "internalType": "bool",
          "name": "",
          "type": "bool"
        }
      ],
      "stateMutability": "view",
      "type": "function"
    },
    {
      "inputs": [
        {
          "internalType": "uint256",
          "name": "",
          "type": "uint256"
        },
        {
          "internalType": "uint256",
          "name": "",
          "type": "uint256"
        }
      ],
      "name": "yesBettors",
      "outputs": [
        {
          "internalType": "address",
          "name": "",
          "type": "address"
        }
      ],
      "stateMutability": "view",
      "type": "function"
    }
  ],
  "bytecode": "0x6080604052348015600e575f5ffd5b505f80546001600160a01b031916331790556001805561239c806100315f395ff3fe60806040526004361061011a575f3560e01c80637bd485721161009d578063a9d6921b11610062578063a9d6921b1461038b578063ae062acd146103ac578063b4ad06a1146103e5578063c03fb87c14610404578063fe83bece14610478575f5ffd5b80637bd48572146102b15780637d06a8e1146102d05780638da5cb5b146103195780639a63af08146103375780639ed9c74d14610378575f5ffd5b80632e6a7e63116100e35780632e6a7e631461020e5780634404de731461022d5780635cb903a11461024c5780635e148b8b1461026b5780636f9fb98a1461029f575f5ffd5b80624fbbb01461011e57806315dc0cfa1461015c5780631a157361146101895780631f1a9733146101aa57806323aa3341146101e1575b5f5ffd5b348015610129575f5ffd5b5061013d610138366004611d24565b6104ab565b6040516101539a99989796959493929190611d69565b60405180910390f35b348015610167575f5ffd5b5061017b610176366004611e73565b610615565b604051908152602001610153565b348015610194575f5ffd5b506101a86101a3366004611d24565b6108a5565b005b3480156101b5575f5ffd5b506101c96101c4366004611ee7565b6109e5565b6040516001600160a01b039091168152602001610153565b3480156101ec575f5ffd5b506102006101fb366004611d24565b610a19565b604051610153929190611f4a565b348015610219575f5ffd5b506101a8610228366004611d24565b610b49565b348015610238575f5ffd5b506101a8610247366004611f77565b6110cb565b348015610257575f5ffd5b5061017b610266366004611d24565b61119d565b348015610276575f5ffd5b5061028a610285366004611d24565b6111bc565b60408051928352602083019190915201610153565b3480156102aa575f5ffd5b504761017b565b3480156102bc575f5ffd5b506101c96102cb366004611ee7565b61123d565b3480156102db575f5ffd5b506103096102ea366004611fa9565b600360209081525f928352604080842090915290825290205460ff1681565b6040519015158152602001610153565b348015610324575f5ffd5b505f546101c9906001600160a01b031681565b348015610342575f5ffd5b50610356610351366004611d24565b611256565b6040805194151585526020850193909352918301526060820152608001610153565b6101a8610386366004611f77565b6112ce565b348015610396575f5ffd5b5061039f6116da565b6040516101539190611fd7565b3480156103b7575f5ffd5b506103096103c6366004611fa9565b600460209081525f928352604080842090915290825290205460ff1681565b3480156103f0575f5ffd5b506101a86103ff366004611d24565b611730565b34801561040f575f5ffd5b5061046161041e366004611fa9565b5f8281526004602090815260408083206001600160a01b03949094168084529382528083205494835260038252808320938352929052205460ff91821692911690565b604080519215158352901515602083015201610153565b348015610483575f5ffd5b50610497610492366004611d24565b61186b565b604051610153989796959493929190612019565b60026020525f9081526040902080546001820180549192916104cc90612075565b80601f01602080910402602001604051908101604052809291908181526020018280546104f890612075565b80156105435780601f1061051a57610100808354040283529160200191610543565b820191905f5260205f20905b81548152906001019060200180831161052657829003601f168201915b50505050509080600201805461055890612075565b80601f016020809104026020016040519081016040528092919081815260200182805461058490612075565b80156105cf5780601f106105a6576101008083540402835291602001916105cf565b820191905f5260205f20905b8154815290600101906020018083116105b257829003601f168201915b5050506003840154600485015460058601546006909601549495919490935060ff808316935061010083048116926201000081048216926301000000909104909116908a565b5f80546001600160a01b031633146106485760405162461bcd60e51b815260040161063f906120ad565b60405180910390fd5b5f82116106a75760405162461bcd60e51b815260206004820152602760248201527f56616c6f722064612061706f737461206465766520736572206d61696f7220716044820152667565207a65726f60c81b606482015260840161063f565b4283116107025760405162461bcd60e51b815260206004820152602360248201527f4461746120646520617075726163616f206465766520736572206e6f2066757460448201526275726f60e81b606482015260840161063f565b600180545f918261071283612109565b90915550604080516101408101825282815260208082018a81528284018a90526060830189905260808301889052600160a0840181905260c084018190525f60e085018190526101008501819052426101208601528681526002909352939091208251815590519394509092909182019061078d908261216c565b50604082015160028201906107a2908261216c565b50606082015160038201556080820151600482015560a082015160058201805460c085015160e086015161010080880151151563010000000263ff0000001992151562010000029290921663ffff00001993151590910261ff00199615159690961661ffff199094169390931794909417161791909117905561012090910151600690910155600780546001810182555f919091527fa66cc928b5edb82af9bd49922954155ab7b0942694bea4ce44661d9a8736c6880181905560405181907f74200f7eb8a199a10a76017d6afca87b5c7bb0eaf139e0d6bfb28ed661d8323290610894908990899089908990612227565b60405180910390a295945050505050565b5f546001600160a01b031633146108ce5760405162461bcd60e51b815260040161063f906120ad565b5f81815260026020526040902060050154819060ff166109005760405162461bcd60e51b815260040161063f9061225f565b5f8281526002602052604090206005015462010000900460ff16156109375760405162461bcd60e51b815260040161063f9061228c565b5f82815260026020526040902060050154610100900460ff161561099d5760405162461bcd60e51b815260206004820152601860248201527f41706f73746173206a6120657374616f20616265727461730000000000000000604482015260640161063f565b5f82815260026020526040808220600501805461ff0019166101001790555183917fbc9e473d4bd47ef1c15baacd518e787e6e0e8e28b6dd758576ea00457d59fae691a25050565b6006602052815f5260405f2081815481106109fe575f80fd5b5f918252602090912001546001600160a01b03169150829050565b5f5460609081906001600160a01b03163314610a475760405162461bcd60e51b815260040161063f906120ad565b5f83815260026020526040902060050154839060ff16610a795760405162461bcd60e51b815260040161063f9061225f565b5f848152600560209081526040808320600683529281902083548251818502810185019093528083529092849190830182828015610ade57602002820191905f5260205f20905b81546001600160a01b03168152600190910190602001808311610ac0575b5050505050915080805480602002602001604051908101604052809291908181526020018280548015610b3857602002820191905f5260205f20905b81546001600160a01b03168152600190910190602001808311610b1a575b505050505090509250925050915091565b5f546001600160a01b03163314610b725760405162461bcd60e51b815260040161063f906120ad565b5f81815260026020526040902060050154819060ff16610ba45760405162461bcd60e51b815260040161063f9061225f565b5f8281526002602052604090206005015462010000900460ff1615610c1a5760405162461bcd60e51b815260206004820152602660248201527f4e616f20706f64652064656c6574617220707265646963616f206a61207265736044820152656f6c7669646160d01b606482015260840161063f565b5f60025f8481526020019081526020015f20604051806101400160405290815f8201548152602001600182018054610c5190612075565b80601f0160208091040260200160405190810160405280929190818152602001828054610c7d90612075565b8015610cc85780601f10610c9f57610100808354040283529160200191610cc8565b820191905f5260205f20905b815481529060010190602001808311610cab57829003601f168201915b50505050508152602001600282018054610ce190612075565b80601f0160208091040260200160405190810160405280929190818152602001828054610d0d90612075565b8015610d585780601f10610d2f57610100808354040283529160200191610d58565b820191905f5260205f20905b815481529060010190602001808311610d3b57829003601f168201915b50505091835250506003820154602080830191909152600483015460408084019190915260058085015460ff8082161515606087015261010082048116151560808701526201000082048116151560a0870152630100000090910416151560c085015260069094015460e0909301929092525f8781529281528183208054835181840281018401909452808452949550929391929190830182828015610e2557602002820191905f5260205f20905b81546001600160a01b03168152600190910190602001808311610e07575b509394505f93505050505b8151811015610eff575f828281518110610e4c57610e4c6122c3565b6020908102919091018101515f8881526004835260408082206001600160a01b0384168084529452808220805460ff191690556080880151905192945080156108fc02929091818181858888f19350505050158015610ead573d5f5f3e3d5ffd5b50806001600160a01b0316867f7a482fdeb6bc9a1376f597068a214a7a39472bb2eff1b8cad21ba04f49ddca1b8660800151604051610eee91815260200190565b60405180910390a350600101610e30565b505f84815260066020908152604080832080548251818502810185019093528083529192909190830182828015610f5d57602002820191905f5260205f20905b81546001600160a01b03168152600190910190602001808311610f3f575b509394505f93505050505b8151811015611037575f828281518110610f8457610f846122c3565b6020908102919091018101515f8981526004835260408082206001600160a01b0384168084529452808220805460ff191690556080890151905192945080156108fc02929091818181858888f19350505050158015610fe5573d5f5f3e3d5ffd5b50806001600160a01b0316877f7a482fdeb6bc9a1376f597068a214a7a39472bb2eff1b8cad21ba04f49ddca1b876080015160405161102691815260200190565b60405180910390a350600101610f68565b505f85815260056020526040812061104e91611cee565b5f85815260066020526040812061106491611cee565b61106d85611a26565b5f85815260026020908152604091829020600501805460ff19169055840151905186917f06c195ba60dbcf5961337c6b2dca0b02f97f8e2c42c4b6142e15f27be0789e14916110bc91906122d7565b60405180910390a25050505050565b5f546001600160a01b031633146110f45760405162461bcd60e51b815260040161063f906120ad565b5f82815260026020526040902060050154829060ff166111265760405162461bcd60e51b815260040161063f9061225f565b5f8381526002602052604090206005015462010000900460ff161561115d5760405162461bcd60e51b815260040161063f9061228c565b5f83815260026020526040902060050180546201000063ffff000019909116630100000085151502171761ff00191690556111988383611aca565b505050565b600781815481106111ac575f80fd5b5f91825260209091200154905081565b5f818152600260205260408120600501548190839060ff166111f05760405162461bcd60e51b815260040161063f9061225f565b5f848152600260209081526040808320600401546005909252909120546112189082906122f0565b5f868152600660205260409020549094506112349082906122f0565b92505050915091565b6005602052815f5260405f2081815481106109fe575f80fd5b5f81815260026020526040812060050154819081908190859060ff1661128e5760405162461bcd60e51b815260040161063f9061225f565b5050505f92835250506002602081815260408084206005808201549084528286205460068086529390962054949093520154630100000090910460ff1693565b5f82815260026020526040902060050154829060ff166113005760405162461bcd60e51b815260040161063f9061225f565b5f60025f8581526020019081526020015f20604051806101400160405290815f820154815260200160018201805461133790612075565b80601f016020809104026020016040519081016040528092919081815260200182805461136390612075565b80156113ae5780601f10611385576101008083540402835291602001916113ae565b820191905f5260205f20905b81548152906001019060200180831161139157829003601f168201915b505050505081526020016002820180546113c790612075565b80601f01602080910402602001604051908101604052809291908181526020018280546113f390612075565b801561143e5780601f106114155761010080835404028352916020019161143e565b820191905f5260205f20905b81548152906001019060200180831161142157829003601f168201915b50505091835250506003820154602082015260048201546040820152600582015460ff8082161515606084015261010082048116151560808401526201000082048116151560a0840152630100000090910416151560c08083019190915260069092015460e09091015281015190915061150c5760405162461bcd60e51b815260206004820152602960248201527f41706f7374617320657374616f2066656368616461732070617261206573746160448201526820707265646963616f60b81b606482015260840161063f565b8060e001511561152e5760405162461bcd60e51b815260040161063f9061228c565b5f84815260046020908152604080832033845290915290205460ff16156115975760405162461bcd60e51b815260206004820152601e60248201527f566f6365206a612061706f73746f75206e6573746120707265646963616f0000604482015260640161063f565b806080015134146115ea5760405162461bcd60e51b815260206004820152601960248201527f56616c6f722064612061706f73746120696e636f727265746f00000000000000604482015260640161063f565b5f8481526003602090815260408083203380855290835281842080548815801560ff1992831617909255898652600485528386209286529190935292208054909216600117909155611668575f8481526005602090815260408220805460018101825590835291200180546001600160a01b03191633179055611696565b5f8481526006602090815260408220805460018101825590835291200180546001600160a01b031916331790555b604080518415158152346020820152339186917f4af71b021e799c62c158bd54636ca8da2fa26115a21a2dc6efe486ec104fd15f910160405180910390a350505050565b6060600780548060200260200160405190810160405280929190818152602001828054801561172657602002820191905f5260205f20905b815481526020019060010190808311611712575b5050505050905090565b5f546001600160a01b031633146117595760405162461bcd60e51b815260040161063f906120ad565b5f81815260026020526040902060050154819060ff1661178b5760405162461bcd60e51b815260040161063f9061225f565b5f8281526002602052604090206005015462010000900460ff16156117c25760405162461bcd60e51b815260040161063f9061228c565b5f82815260026020526040902060050154610100900460ff166118275760405162461bcd60e51b815260206004820152601960248201527f41706f73746173206a6120657374616f20666563686164617300000000000000604482015260640161063f565b5f82815260026020526040808220600501805461ff00191690555183917feb7ecc3aa4dd407c7207677a2cbf861441d5c5e6c0dc70ad9692a980385c20d691a25050565b5f81815260026020526040812060050154606090819083908190819081908190899060ff166118ac5760405162461bcd60e51b815260040161063f9061225f565b5f8a81526002602081905260409091208054600382015460048301546005840154600185018054959694959094870193929160ff80821692610100830482169262010000900490911690879061190190612075565b80601f016020809104026020016040519081016040528092919081815260200182805461192d90612075565b80156119785780601f1061194f57610100808354040283529160200191611978565b820191905f5260205f20905b81548152906001019060200180831161195b57829003601f168201915b5050505050965085805461198b90612075565b80601f01602080910402602001604051908101604052809291908181526020018280546119b790612075565b8015611a025780601f106119d957610100808354040283529160200191611a02565b820191905f5260205f20905b8154815290600101906020018083116119e557829003601f168201915b50505050509550995099509950995099509950995099505050919395975091939597565b6007545f5b81811015611198578260078281548110611a4757611a476122c3565b905f5260205f20015403611ac2576007611a6260018461230d565b81548110611a7257611a726122c3565b905f5260205f20015460078281548110611a8e57611a8e6122c3565b5f918252602090912001556007805480611aaa57611aaa612320565b600190038181905f5260205f20015f90559055505050565b600101611a2b565b5f81611ae2575f838152600660205260409020611af0565b5f8381526005602052604090205b805490915015611c02575f838152600660209081526040808320546005909252822054611b1d9190612334565b5f8581526002602052604081206004015491925090611b3c90836122f0565b83549091505f90611b4d9083612347565b90505f5b8454811015611bb257848181548110611b6c57611b6c6122c3565b5f9182526020822001546040516001600160a01b039091169184156108fc02918591818181858888f19350505050158015611ba9573d5f5f3e3d5ffd5b50600101611b51565b5083546040805187151581526020810192909252810182905286907f2d1f22a4f9c99ad526e080695d766ddddcf83cf3023399f52373d8a8bceeb1da9060600160405180910390a2505050505050565b61119883835f81611c1f575f838152600560205260409020611c2d565b5f8381526006602052604090205b5f848152600260205260408120600401549192505b8254811015611ca357828181548110611c5d57611c5d6122c3565b5f9182526020822001546040516001600160a01b039091169184156108fc02918591818181858888f19350505050158015611c9a573d5f5f3e3d5ffd5b50600101611c42565b506040805184151581525f6020820181905281830152905185917f2d1f22a4f9c99ad526e080695d766ddddcf83cf3023399f52373d8a8bceeb1da919081900360600190a250505050565b5080545f8255905f5260205f2090810190611d099190611d0c565b50565b5b80821115611d20575f8155600101611d0d565b5090565b5f60208284031215611d34575f5ffd5b5035919050565b5f81518084528060208401602086015e5f602082860101526020601f19601f83011685010191505092915050565b8a815261014060208201525f611d8361014083018c611d3b565b8281036040840152611d95818c611d3b565b606084019a909a525050608081019690965293151560a086015291151560c0850152151560e08401521515610100830152610120909101529392505050565b634e487b7160e01b5f52604160045260245ffd5b5f82601f830112611df7575f5ffd5b813567ffffffffffffffff811115611e1157611e11611dd4565b604051601f8201601f19908116603f0116810167ffffffffffffffff81118282101715611e4057611e40611dd4565b604052818152838201602001851015611e57575f5ffd5b816020850160208301375f918101602001919091529392505050565b5f5f5f5f60808587031215611e86575f5ffd5b843567ffffffffffffffff811115611e9c575f5ffd5b611ea887828801611de8565b945050602085013567ffffffffffffffff811115611ec4575f5ffd5b611ed087828801611de8565b949794965050505060408301359260600135919050565b5f5f60408385031215611ef8575f5ffd5b50508035926020909101359150565b5f8151808452602084019350602083015f5b82811015611f405781516001600160a01b0316865260209586019590910190600101611f19565b5093949350505050565b604081525f611f5c6040830185611f07565b8281036020840152611f6e8185611f07565b95945050505050565b5f5f60408385031215611f88575f5ffd5b8235915060208301358015158114611f9e575f5ffd5b809150509250929050565b5f5f60408385031215611fba575f5ffd5b8235915060208301356001600160a01b0381168114611f9e575f5ffd5b602080825282518282018190525f918401906040840190835b8181101561200e578351835260209384019390920191600101611ff0565b509095945050505050565b88815261010060208201525f61203361010083018a611d3b565b8281036040840152612045818a611d3b565b60608401989098525050608081019490945291151560a0840152151560c0830152151560e0909101529392505050565b600181811c9082168061208957607f821691505b6020821081036120a757634e487b7160e01b5f52602260045260245ffd5b50919050565b60208082526028908201527f4170656e6173206f206f776e657220706f646520657865637574617220657374604082015267612066756e63616f60c01b606082015260800190565b634e487b7160e01b5f52601160045260245ffd5b5f6001820161211a5761211a6120f5565b5060010190565b601f82111561119857805f5260205f20601f840160051c810160208510156121465750805b601f840160051c820191505b81811015612165575f8155600101612152565b5050505050565b815167ffffffffffffffff81111561218657612186611dd4565b61219a816121948454612075565b84612121565b6020601f8211600181146121cc575f83156121b55750848201515b5f19600385901b1c1916600184901b178455612165565b5f84815260208120601f198516915b828110156121fb57878501518255602094850194600190920191016121db565b508482101561221857868401515f19600387901b60f8161c191681555b50505050600190811b01905550565b608081525f6122396080830187611d3b565b828103602084015261224b8187611d3b565b604084019590955250506060015292915050565b602080825260139082015272507265646963616f206e616f2065786973746560681b604082015260600190565b60208082526019908201527f507265646963616f206a6120666f69207265736f6c7669646100000000000000604082015260600190565b634e487b7160e01b5f52603260045260245ffd5b602081525f6122e96020830184611d3b565b9392505050565b8082028115828204841417612307576123076120f5565b92915050565b81810381811115612307576123076120f5565b634e487b7160e01b5f52603160045260245ffd5b80820180821115612307576123076120f5565b5f8261236157634e487b7160e01b5f52601260045260245ffd5b50049056fea264697066735822122062c64fe4c640f609e22d4ef84a4bdc78dfa783beb969eb5ee5e7e75b6d4ce43664736f6c634300081c0033",
  "linkReferences": {},
  "deployedLinkReferences": {},
  "immutableReferences": {},
  "inputSourceName": "project/contracts/PredictionMarket.sol",
  "buildInfoId": "solc-0_8_28-4744ed7c76e4c34b5cb4799aecbbf7bccec19338"
}