{
  "_format": "hh-sol-artifact-1",
  "contractName": "PredictionMarket",
  "sourceName": "contracts/PredictionMarket.sol",
  "abi": [
    {
      "inputs": [],
      "stateMutability": "nonpayable",
      "type": "constructor"
    },
    {
      "anonymous": false,
      "inputs": [
        {
          "indexed": true,
          "internalType": "address",
          "name": "bettor",
          "type": "address"
        },
        {
          "indexed": false,
          "internalType": "bool",
          "name": "choice",
          "type": "bool"
        },
        {
          "indexed": false,
          "internalType": "uint256",
          "name": "amount",
          "type": "uint256"
        }
      ],
      "name": "BetPlaced",
      "type": "event"
    },
    {
      "anonymous": false,
      "inputs": [
        {
          "indexed": false,
          "internalType": "string",
          "name": "shortName",
          "type": "string"
        },
        {
          "indexed": false,
          "internalType": "string",
          "name": "description",
          "type": "string"
        },
        {
          "indexed": false,
          "internalType": "uint256",
          "name": "settlementDate",
          "type": "uint256"
        },
        {
          "indexed": false,
          "internalType": "uint256",
          "name": "betAmount",
          "type": "uint256"
        }
      ],
      "name": "PredictionCreated",
      "type": "event"
    },
    {
      "anonymous": false,
      "inputs": [
        {
          "indexed": false,
          "internalType": "string",
          "name": "shortName",
          "type": "string"
        }
      ],
      "name": "PredictionDeleted",
      "type": "event"
    },
    {
      "anonymous": false,
      "inputs": [
        {
          "indexed": false,
          "internalType": "bool",
          "name": "outcome",
          "type": "bool"
        },
        {
          "indexed": false,
          "internalType": "uint256",
          "name": "winnersCount",
          "type": "uint256"
        },
        {
          "indexed": false,
          "internalType": "uint256",
          "name": "prizePerWinner",
          "type": "uint256"
        }
      ],
      "name": "PredictionSettled",
      "type": "event"
    },
    {
      "anonymous": false,
      "inputs": [
        {
          "indexed": true,
          "internalType": "address",
          "name": "bettor",
          "type": "address"
        },
        {
          "indexed": false,
          "internalType": "uint256",
          "name": "amount",
          "type": "uint256"
        }
      ],
      "name": "RefundIssued",
      "type": "event"
    },
    {
      "inputs": [],
      "name": "betAmount",
      "outputs": [
        {
          "internalType": "uint256",
          "name": "",
          "type": "uint256"
        }
      ],
      "stateMutability": "view",
      "type": "function"
    },
    {
      "inputs": [
        {
          "internalType": "string",
          "name": "_shortName",
          "type": "string"
        },
        {
          "internalType": "string",
          "name": "_description",
          "type": "string"
        },
        {
          "internalType": "uint256",
          "name": "_settlementDate",
          "type": "uint256"
        },
        {
          "internalType": "uint256",
          "name": "_betAmount",
          "type": "uint256"
        }
      ],
      "name": "createPrediction",
      "outputs": [],
      "stateMutability": "nonpayable",
      "type": "function"
    },
    {
      "inputs": [],
      "name": "currentPrediction",
      "outputs": [
        {
          "internalType": "string",
          "name": "shortName",
          "type": "string"
        },
        {
          "internalType": "string",
          "name": "description",
          "type": "string"
        },
        {
          "internalType": "uint256",
          "name": "settlementDate",
          "type": "uint256"
        },
        {
          "internalType": "bool",
          "name": "isActive",
          "type": "bool"
        },
        {
          "internalType": "bool",
          "name": "isSettled",
          "type": "bool"
        },
        {
          "internalType": "bool",
          "name": "outcome",
          "type": "bool"
        }
      ],
      "stateMutability": "view",
      "type": "function"
    },
    {
      "inputs": [],
      "name": "deletePrediction",
      "outputs": [],
      "stateMutability": "nonpayable",
      "type": "function"
    },
    {
      "inputs": [],
      "name": "getContractBalance",
      "outputs": [
        {
          "internalType": "uint256",
          "name": "",
          "type": "uint256"
        }
      ],
      "stateMutability": "view",
      "type": "function"
    },
    {
      "inputs": [],
      "name": "getCurrentPrediction",
      "outputs": [
        {
          "internalType": "string",
          "name": "shortName",
          "type": "string"
        },
        {
          "internalType": "string",
          "name": "description",
          "type": "string"
        },
        {
          "internalType": "uint256",
          "name": "settlementDate",
          "type": "uint256"
        },
        {
          "internalType": "bool",
          "name": "isActive",
          "type": "bool"
        },
        {
          "internalType": "bool",
          "name": "isSettled",
          "type": "bool"
        },
        {
          "internalType": "bool",
          "name": "outcome",
          "type": "bool"
        },
        {
          "internalType": "uint256",
          "name": "yesCount",
          "type": "uint256"
        },
        {
          "internalType": "uint256",
          "name": "noCount",
          "type": "uint256"
        }
      ],
      "stateMutability": "view",
      "type": "function"
    },
    {
      "inputs": [
        {
          "internalType": "address",
          "name": "_user",
          "type": "address"
        }
      ],
      "name": "getUserBet",
      "outputs": [
        {
          "internalType": "bool",
          "name": "hasBetPlaced",
          "type": "bool"
        },
        {
          "internalType": "bool",
          "name": "choice",
          "type": "bool"
        }
      ],
      "stateMutability": "view",
      "type": "function"
    },
    {
      "inputs": [],
      "name": "getVolumes",
      "outputs": [
        {
          "internalType": "uint256",
          "name": "yesVolume",
          "type": "uint256"
        },
        {
          "internalType": "uint256",
          "name": "noVolume",
          "type": "uint256"
        }
      ],
      "stateMutability": "view",
      "type": "function"
    },
    {
      "inputs": [
        {
          "internalType": "address",
          "name": "",
          "type": "address"
        }
      ],
      "name": "hasBet",
      "outputs": [
        {
          "internalType": "bool",
          "name": "",
          "type": "bool"
        }
      ],
      "stateMutability": "view",
      "type": "function"
    },
    {
      "inputs": [
        {
          "internalType": "uint256",
          "name": "",
          "type": "uint256"
        }
      ],
      "name": "noBettors",
      "outputs": [
        {
          "internalType": "address",
          "name": "",
          "type": "address"
        }
      ],
      "stateMutability": "view",
      "type": "function"
    },
    {
      "inputs": [],
      "name": "owner",
      "outputs": [
        {
          "internalType": "address",
          "name": "",
          "type": "address"
        }
      ],
      "stateMutability": "view",
      "type": "function"
    },
    {
      "inputs": [
        {
          "internalType": "bool",
          "name": "_choice",
          "type": "bool"
        }
      ],
      "name": "placeBet",
      "outputs": [],
      "stateMutability": "payable",
      "type": "function"
    },
    {
      "inputs": [
        {
          "internalType": "bool",
          "name": "_outcome",
          "type": "bool"
        }
      ],
      "name": "settlePrediction",
      "outputs": [],
      "stateMutability": "nonpayable",
      "type": "function"
    },
    {
      "inputs": [
        {
          "internalType": "address",
          "name": "",
          "type": "address"
        }
      ],
      "name": "userBets",
      "outputs": [
        {
          "internalType": "bool",
          "name": "",
          "type": "bool"
        }
      ],
      "stateMutability": "view",
      "type": "function"
    },
    {
      "inputs": [
        {
          "internalType": "uint256",
          "name": "",
          "type": "uint256"
        }
      ],
      "name": "yesBettors",
      "outputs": [
        {
          "internalType": "address",
          "name": "",
          "type": "address"
        }
      ],
      "stateMutability": "view",
      "type": "function"
    }
  ],
  "bytecode": "6080604052348015600e575f5ffd5b505f80546001600160a01b031916331790556116648061002d5f395ff3fe6080604052600436106100e4575f3560e01c806335f5bc8911610087578063c96adb0111610057578063c96adb0114610276578063cefb865a146102d5578063d24257c0146102fe578063dd9feb9214610313575f5ffd5b806335f5bc89146101ef5780634e92a6461461020e5780636f9fb98a1461023c5780638da5cb5b14610258575f5ffd5b8063174b3421116100c2578063174b34211461015f57806317b3f2b4146101735780631bbcf352146101aa57806334d5959d146101c9575f5ffd5b8063096a3778146100e8578063136f1016146100fd57806315dc0cfa14610140575b5f5ffd5b6100fb6100f6366004611178565b61033b565b005b348015610108575f5ffd5b5061012b61011736600461119e565b60076020525f908152604090205460ff1681565b60405190151581526020015b60405180910390f35b34801561014b575f5ffd5b506100fb61015a366004611263565b610567565b34801561016a575f5ffd5b506100fb61078f565b34801561017e575f5ffd5b5061019261018d3660046112d7565b610ae7565b6040516001600160a01b039091168152602001610137565b3480156101b5575f5ffd5b506100fb6101c4366004611178565b610b0f565b3480156101d4575f5ffd5b506101dd610e27565b6040516101379695949392919061131c565b3480156101fa575f5ffd5b506101926102093660046112d7565b610f64565b348015610219575f5ffd5b5061012b61022836600461119e565b60066020525f908152604090205460ff1681565b348015610247575f5ffd5b50475b604051908152602001610137565b348015610263575f5ffd5b505f54610192906001600160a01b031681565b348015610281575f5ffd5b506102be61029036600461119e565b6001600160a01b03165f9081526007602090815260408083205460069092529091205460ff91821692911690565b604080519215158352901515602083015201610137565b3480156102e0575f5ffd5b506102e9610f73565b60408051928352602083019190915201610137565b348015610309575f5ffd5b5061024a60015481565b34801561031e575f5ffd5b50610327610f9f565b604051610137989796959493929190611368565b60055460ff166103665760405162461bcd60e51b815260040161035d906113c1565b60405180910390fd5b600554610100900460ff16156103ba5760405162461bcd60e51b8152602060048201526019602482015278507265646963616f206a6120666f69207265736f6c7669646160381b604482015260640161035d565b335f9081526007602052604090205460ff16156104195760405162461bcd60e51b815260206004820152601e60248201527f566f6365206a612061706f73746f75206e6573746120707265646963616f0000604482015260640161035d565b600154341461046a5760405162461bcd60e51b815260206004820152601960248201527f56616c6f722064612061706f73746120696e636f727265746f00000000000000604482015260640161035d565b335f90815260066020908152604080832080548515801560ff199283161790925560079093529220805490911660011790556104e657600880546001810182555f919091527ff3f7a9fe364faab93b216da50a3214154f22a0a2b415b23a84c8169e8b636ee30180546001600160a01b03191633179055610528565b600980546001810182555f919091527f6e1540171b6c0c960b71a7020d9f60077f6af931a8bbf590da0223dacf75c7af0180546001600160a01b031916331790555b60408051821515815234602082015233917fe57fa5a543ebcdebf2a7d7102ac913e14454cec006468e43a6916e95bdfcea9e910160405180910390a250565b5f546001600160a01b031633146105905760405162461bcd60e51b815260040161035d90611402565b60055460ff16156105e35760405162461bcd60e51b815260206004820152601c60248201527f4a612065786973746520756d6120707265646963616f20617469766100000000604482015260640161035d565b5f81116106425760405162461bcd60e51b815260206004820152602760248201527f56616c6f722064612061706f737461206465766520736572206d61696f7220716044820152667565207a65726f60c81b606482015260840161035d565b42821161069d5760405162461bcd60e51b815260206004820152602360248201527f4461746120646520617075726163616f206465766520736572206e6f2066757460448201526275726f60e81b606482015260840161035d565b6040805160c08101825285815260208101859052908101839052600160608201525f6080820181905260a08201526002806106d887826114cd565b50602082015160018201906106ed90826114cd565b506040828101516002830155606083015160039092018054608085015160a0909501511515620100000262ff0000199515156101000261ff00199515159590951661ffff19909216919091179390931793909316919091179091556001829055517feee5fa70d3baecdf55920fea4ccaef4d5a7200261add394ab0d4d6019ea1af2190610781908690869086908690611588565b60405180910390a150505050565b5f546001600160a01b031633146107b85760405162461bcd60e51b815260040161035d90611402565b60055460ff166107da5760405162461bcd60e51b815260040161035d906113c1565b600554610100900460ff16156108415760405162461bcd60e51b815260206004820152602660248201527f4e616f20706f64652064656c6574617220707265646963616f206a61207265736044820152656f6c7669646160d01b606482015260840161035d565b5f60025f0180546108519061144a565b80601f016020809104026020016040519081016040528092919081815260200182805461087d9061144a565b80156108c85780601f1061089f576101008083540402835291602001916108c8565b820191905f5260205f20905b8154815290600101906020018083116108ab57829003601f168201915b509394505f93505050505b600854811015610998575f600882815481106108f1576108f16115c0565b5f9182526020808320909101546001600160a01b031680835260079091526040808320805460ff191690556001549051919350839281156108fc029290818181858888f19350505050158015610949573d5f5f3e3d5ffd5b50806001600160a01b03167fa171b6942063c6f2800ce40a780edce37baa2b618571b11eedd1e69e626e7d7660015460405161098791815260200190565b60405180910390a2506001016108d3565b505f5b600954811015610a60575f600982815481106109b9576109b96115c0565b5f9182526020808320909101546001600160a01b031680835260079091526040808320805460ff191690556001549051919350839281156108fc029290818181858888f19350505050158015610a11573d5f5f3e3d5ffd5b50806001600160a01b03167fa171b6942063c6f2800ce40a780edce37baa2b618571b11eedd1e69e626e7d76600154604051610a4f91815260200190565b60405180910390a25060010161099b565b50610a6c60085f61110f565b610a7760095f61110f565b60025f610a84828261112d565b610a91600183015f61112d565b505f600282018190556003909101805462ffffff191690556001556040517f0d8eac1b159689c52d01bdbffec8717c6e637b22ca9202c75ecd62ab92426b9790610adc9083906115d4565b60405180910390a150565b60098181548110610af6575f80fd5b5f918252602090912001546001600160a01b0316905081565b5f546001600160a01b03163314610b385760405162461bcd60e51b815260040161035d90611402565b60055460ff16610b5a5760405162461bcd60e51b815260040161035d906113c1565b600554610100900460ff1615610bae5760405162461bcd60e51b8152602060048201526019602482015278507265646963616f206a6120666f69207265736f6c7669646160381b604482015260640161035d565b60058054821515620100000262ffff0019909116176101001790555f81610bd6576009610bd9565b60085b805480602002602001604051908101604052809291908181526020018280548015610c2b57602002820191905f5260205f20905b81546001600160a01b03168152600190910190602001808311610c0d575b505083519394505082159150610cf8905057475f610c4983836115e6565b90505f5b83811015610cad57848181518110610c6757610c676115c0565b60200260200101516001600160a01b03166108fc8390811502906040515f60405180830381858888f19350505050158015610ca4573d5f5f3e3d5ffd5b50600101610c4d565b50604080518615158152602081018590529081018290527faf1bfcfb8599cb38cc0621f7a607cba27f63616368b4d360d90eb99ed89e2b979060600160405180910390a15050610e0c565b5f83610d05576008610d08565b60095b805480602002602001604051908101604052809291908181526020018280548015610d5a57602002820191905f5260205f20905b81546001600160a01b03168152600190910190602001808311610d3c575b509394505f93505050505b8151811015610dc857818181518110610d8057610d806115c0565b60200260200101516001600160a01b03166108fc60015490811502906040515f60405180830381858888f19350505050158015610dbf573d5f5f3e3d5ffd5b50600101610d65565b506040805185151581525f602082018190528183015290517faf1bfcfb8599cb38cc0621f7a607cba27f63616368b4d360d90eb99ed89e2b979181900360600190a1505b610e1760085f61110f565b610e2260095f61110f565b505050565b600280548190610e369061144a565b80601f0160208091040260200160405190810160405280929190818152602001828054610e629061144a565b8015610ead5780601f10610e8457610100808354040283529160200191610ead565b820191905f5260205f20905b815481529060010190602001808311610e9057829003601f168201915b505050505090806001018054610ec29061144a565b80601f0160208091040260200160405190810160405280929190818152602001828054610eee9061144a565b8015610f395780601f10610f1057610100808354040283529160200191610f39565b820191905f5260205f20905b815481529060010190602001808311610f1c57829003601f168201915b50505050600283015460039093015491929160ff808216925061010082048116916201000090041686565b60088181548110610af6575f80fd5b6001546008545f918291610f879190611605565b600154600954919350610f9991611605565b90509091565b6004546005546008546009546002805460609586955f95869586958695869586959294600394919360ff808216946101008304821694620100009093049091169291908890610fed9061144a565b80601f01602080910402602001604051908101604052809291908181526020018280546110199061144a565b80156110645780601f1061103b57610100808354040283529160200191611064565b820191905f5260205f20905b81548152906001019060200180831161104757829003601f168201915b505050505097508680546110779061144a565b80601f01602080910402602001604051908101604052809291908181526020018280546110a39061144a565b80156110ee5780601f106110c5576101008083540402835291602001916110ee565b820191905f5260205f20905b8154815290600101906020018083116110d157829003601f168201915b50505050509650975097509750975097509750975097509091929394959697565b5080545f8255905f5260205f209081019061112a9190611160565b50565b5080546111399061144a565b5f825580601f10611148575050565b601f0160209004905f5260205f209081019061112a91905b5b80821115611174575f8155600101611161565b5090565b5f60208284031215611188575f5ffd5b81358015158114611197575f5ffd5b9392505050565b5f602082840312156111ae575f5ffd5b81356001600160a01b0381168114611197575f5ffd5b634e487b7160e01b5f52604160045260245ffd5b5f82601f8301126111e7575f5ffd5b813567ffffffffffffffff811115611201576112016111c4565b604051601f8201601f19908116603f0116810167ffffffffffffffff81118282101715611230576112306111c4565b604052818152838201602001851015611247575f5ffd5b816020850160208301375f918101602001919091529392505050565b5f5f5f5f60808587031215611276575f5ffd5b843567ffffffffffffffff81111561128c575f5ffd5b611298878288016111d8565b945050602085013567ffffffffffffffff8111156112b4575f5ffd5b6112c0878288016111d8565b949794965050505060408301359260600135919050565b5f602082840312156112e7575f5ffd5b5035919050565b5f81518084528060208401602086015e5f602082860101526020601f19601f83011685010191505092915050565b60c081525f61132e60c08301896112ee565b828103602084015261134081896112ee565b6040840197909752505092151560608401529015156080830152151560a09091015292915050565b61010081525f61137c61010083018b6112ee565b828103602084015261138e818b6112ee565b604084019990995250509415156060860152921515608085015290151560a084015260c083015260e09091015292915050565b60208082526021908201527f4e656e68756d6120707265646963616f206174697661206e6f206d6f6d656e746040820152606f60f81b606082015260800190565b60208082526028908201527f4170656e6173206f206f776e657220706f646520657865637574617220657374604082015267612066756e63616f60c01b606082015260800190565b600181811c9082168061145e57607f821691505b60208210810361147c57634e487b7160e01b5f52602260045260245ffd5b50919050565b601f821115610e2257805f5260205f20601f840160051c810160208510156114a75750805b601f840160051c820191505b818110156114c6575f81556001016114b3565b5050505050565b815167ffffffffffffffff8111156114e7576114e76111c4565b6114fb816114f5845461144a565b84611482565b6020601f82116001811461152d575f83156115165750848201515b5f19600385901b1c1916600184901b1784556114c6565b5f84815260208120601f198516915b8281101561155c578785015182556020948501946001909201910161153c565b508482101561157957868401515f19600387901b60f8161c191681555b50505050600190811b01905550565b608081525f61159a60808301876112ee565b82810360208401526115ac81876112ee565b604084019590955250506060015292915050565b634e487b7160e01b5f52603260045260245ffd5b602081525f61119760208301846112ee565b5f8261160057634e487b7160e01b5f52601260045260245ffd5b500490565b808202811582820484141761162857634e487b7160e01b5f52601160045260245ffd5b9291505056fea26469706673582212200fe2fada903c68e25521660ea6e694a46264f57e130ac8887c8cc1f6de9c63f964736f6c634300081c0033",
  "linkReferences": {},
  "deployedLinkReferences": {}
}